:100000000C942A000C943F000C943F000C943F0089
:100010000C943F000C943F000C943F000C943F0064
:100020000C943F000C943F000C943F000C943F0054
:100030000C943F000C943F000C943F000C943F0044
:100040000C943F000C943F000C943F000C943F0034
:100050000C943F0011241FBECFE5D8E0DEBFCDBF1A
:1000600010E0A0E6B0E0EEE3FEE102C005900D92E4
:10007000AE36B107D9F70E94DC0B0C941D0F0C941F
:100080000000EF92FF920F931F937B018C0120E001
:1000900030E040E05FE40E94410388238CF0C80117
:1000A000B70120E030E040E05FE40E94B9010E9427
:1000B000A1039B01AC01205030404040504806C095
:1000C000C801B7010E94A1039B01AC01B901CA019B
:1000D0001F910F91FF90EF900895A0E0B0E0E3E74B
:1000E000F0E00C94E60EDC012B01FA019C919230B9
:1000F00008F439C1EB018881823008F433C19430AF
:1001000069F4843009F02FC111969C91119789816F
:10011000981709F428C1A5E6B0E025C1843009F498
:1001200021C18230A9F4923009F01DC19A01AD01BC
:1001300088E0EA010990AE01E90109929E0181502F
:10014000C1F7E201898111969C918923818308C1BD
:10015000923009F407C112962D903C901397EB0151
:100160008A819B811496AD90BD90CD90DC901797BD
:10017000EC80FD800E811F819101281B390BB90194
:1001800037FF04C066277727621B730B6032710547
:100190000CF061C0121613066CF537014801062EEB
:1001A00004C096948794779467940A94D2F721E0D8
:1001B00030E040E050E004C0220F331F441F551FC1
:1001C0006A95D2F721503040404050402E213F21C7
:1001D00040235123211531054105510521F021E02E
:1001E00030E040E050E079018A01E628F72808294C
:1001F00019293CC0232BD1F1260E371E35014601AB
:10020000062E04C096948794779467940A94D2F744
:1002100021E030E040E050E004C0220F331F441FD3
:10022000551F6A95D2F721503040404050402A2156
:100230003B214C215D21211531054105510521F05E
:1002400021E030E040E050E059016A01A628B728DB
:10025000C828D9280BC0821593052CF01C01AA24AC
:10026000BB24650103C0EE24FF24870111969C91F5
:10027000D20111968C91981709F445C0992339F051
:10028000A80197012A193B094C095D0906C0A6017E
:1002900095012E193F09400B510B57FD08C01182E3
:1002A0003382228224833583468357831DC081E0B5
:1002B00081833382228288279927DC01821B930B5A
:1002C000A40BB50B84839583A683B7830DC0220F3F
:1002D000331F441F551F24833583468357838281F0
:1002E000938101979383828324813581468157814D
:1002F000DA01C9010197A109B1098F5F9F4FAF4F83
:10030000BF4328F30BC0918333822282EA0CFB1C8B
:100310000C1D1D1DE482F5820683178383E0808314
:10032000248135814681578157FF1AC0C901AA2708
:1003300097FDA095BA2F81709070A070B0705695FF
:10034000479537952795822B932BA42BB52B848328
:100350009583A683B7838281938101969383828359
:10036000DF0101C0D201CD01CDB7DEB7E2E10C94CF
:10037000020FA0E2B0E0EFEBF1E00C94F20E698323
:100380007A838B839C832D833E834F835887E9E058
:10039000EE2EF12CEC0EFD1ECE010196B7010E944F
:1003A000CA048E010F5E1F4FCE010596B8010E9450
:1003B000CA048A8991E089278A8BC701B801AE01F6
:1003C000475E5F4F0E946D000E94F503A096E6E035
:1003D0000C940E0FA0E2B0E0E0EFF1E00C94F20E0E
:1003E00069837A838B839C832D833E834F835887D5
:1003F000F9E0EF2EF12CEC0EFD1ECE010196B701B7
:100400000E94CA048E010F5E1F4FCE010596B801EF
:100410000E94CA04C701B801AE01475E5F4F0E9447
:100420006D000E94F503A096E6E00C940E0FA0E28A
:10043000B0E0EDE1F2E00C94E60E69837A838B8301
:100440009C832D833E834F835887CE010196BE0146
:10045000675F7F4F0E94CA04CE010596BE016F5EA2
:100460007F4F0E94CA049985923088F08989823032
:10047000C8F0943019F4823051F404C0843029F467
:10048000923081F485E690E0C6C0923049F420E0D5
:100490009A858A89981321E02A87CE010996BBC0E4
:1004A000823049F420E09A858A89981321E02A8BCA
:1004B000CE014196B0C02D843E844F8458886D880B
:1004C0007E888F88988CEE24FF248701AA24BB2481
:1004D000650140E050E060E070E0E0E0F0E0C10184
:1004E00081709070892BE9F0E60CF71C081D191D2E
:1004F0009A01AB012A0D3B1D4C1D5D1D80E090E073
:10050000A0E0B0E0E614F7040805190520F481E046
:1005100090E0A0E0B0E0BA01A901480F591F6A1F9E
:100520007B1FAA0CBB1CCC1CDD1C97FE08C081E005
:1005300090E0A0E0B0E0A82AB92ACA2ADB2A3196C6
:10054000E032F10549F0660C771C881C991C569422
:10055000479437942794C3CFFA85EA892B893C893D
:100560008B859C85280F391F2E5F3F4F17C0CA010E
:1005700081709070892B61F016950795F794E79438
:1005800080E090E0A0E0B0E8E82AF92A0A2B1B2BD3
:1005900076956795579547952F5F3F4F77FDE7CF46
:1005A0000CC0440F551F661F771F17FD4160EE0CEE
:1005B000FF1C001F111F21503040403090E05907B0
:1005C00090E0690790E4790760F32B8F3C8FDB01A3
:1005D000CA018F779070A070B07080349105A1052A
:1005E000B10561F447FD0AC0E114F10401051105EC
:1005F00029F0405C5F4F6F4F7F4F40781A8EFE1797
:1006000011F081E08A8F4D8F5E8F6F8F78A383E02A
:10061000898FCE0149960E94F503A096E2E10C94E1
:10062000020FA8E1B0E0E7E1F3E00C94F20E698379
:100630007A838B839C832D833E834F83588789E005
:10064000E82EF12CEC0EFD1ECE010196B7010E94A2
:10065000CA048E010F5E1F4FCE010596B8010E949D
:10066000CA048985823040F08989823028F0C70128
:10067000B8010E94420501C08FEF6896E6E00C9435
:100680000E0FA8E1B0E0E7E4F3E00C94F20E69830A
:100690007A838B839C832D833E834F83588789E0A5
:1006A000E82EF12CEC0EFD1ECE010196B7010E9442
:1006B000CA048E010F5E1F4FCE010596B8010E943D
:1006C000CA048985823040F08989823028F0C701C8
:1006D000B8010E94420501C08FEF6896E6E00C94D5
:1006E0000E0FA8E1B0E0E7E7F3E00C94F20E6983A7
:1006F0007A838B839C832D833E834F83588789E045
:10070000E82EF12CEC0EFD1ECE010196B7010E94E1
:10071000CA048E010F5E1F4FCE010596B8010E94DC
:10072000CA048985823040F08989823028F0C70167
:10073000B8010E94420501C081E06896E6E00C9491
:100740000E0FACE0B0E0E7EAF3E00C94F60E69833C
:100750007A838B839C83CE010196BE016B5F7F4FB2
:100760000E94CA048D81823061F1823050F1843060
:1007700021F48E81882351F12EC02F81388537FDD9
:1007800020C06E812F3131051CF06623F9F023C0A3
:100790008EE190E0821B930B29853A854B855C8521
:1007A00004C056954795379527958A95D2F76623C5
:1007B000B1F050954095309521953F4F4F4F5F4F89
:1007C0000EC020E030E040E050E009C02FEF3FEFE6
:1007D0004FEF5FE704C020E030E040E050E8B901AF
:1007E000CA012C96E2E00C94120FDF92EF92FF9276
:1007F0000F931F93FC01E480F58006811781D1805F
:100800008081823048F480E090E0A0E1B0E0E82A06
:10081000F92A0A2B1B2BA5C0843009F49FC0823013
:1008200021F4EE24FF24870105C0E114F104010541
:10083000110519F4E0E0F0E096C0628173819FEF4A
:10084000623879070CF05BC022E83FEF261B370BBC
:100850002A3131052CF020E030E040E050E02AC0A1
:10086000B801A701022E04C0769567955795479564
:100870000A94D2F781E090E0A0E0B0E004C0880FD5
:10088000991FAA1FBB1F2A95D2F70197A109B10989
:100890008E219F21A023B1230097A105B10521F04E
:1008A00081E090E0A0E0B0E09A01AB01282B392B69
:1008B0004A2B5B2BDA01C9018F779070A070B07062
:1008C00080349105A105B10539F427FF09C0205CEA
:1008D0003F4F4F4F5F4F04C0215C3F4F4F4F5F4F23
:1008E000E0E0F0E02030A0E03A07A0E04A07A0E412
:1008F0005A0710F0E1E0F0E079018A0127C0603882
:10090000710564F5FB01E158FF4FD801C7018F77EE
:100910009070A070B07080349105A105B10539F4D4
:10092000E7FE0DC080E490E0A0E0B0E004C08FE3FB
:1009300090E0A0E0B0E0E80EF91E0A1F1B1F17FFB1
:1009400005C016950795F794E794319687E01695BC
:100950000795F794E7948A95D1F705C0EE24FF2414
:100960008701EFEFF0E06E2F679566276795902F70
:100970009F77D794DD24D7948E2F8695492F462BC9
:10098000582F5D29B701CA011F910F91FF90EF9079
:10099000DF900895FC01DB01408151812281622FAB
:1009A0006F7770E0221F2227221F9381892F880FE3
:1009B000822B282F30E0991F9927991F11969C931D
:1009C000119721153105A9F54115510561057105ED
:1009D00011F482E037C082E89FEF13969C938E93C8
:1009E00012979A01AB0167E0220F331F441F551F76
:1009F0006A95D1F783E08C930DC0220F331F441FFB
:100A0000551F12968D919C911397019713969C9365
:100A10008E931297203080E0380780E0480780E40A
:100A2000580758F314962D933D934D935C93179765
:100A300008952F3F310579F4411551056105710580
:100A400019F484E08C93089564FF03C081E08C93D3
:100A500012C01C9210C02F57304013963C932E9317
:100A6000129783E08C9387E0440F551F661F771F12
:100A70008A95D1F7706414964D935D936D937C9332
:100A8000179708951F93DC01FB019C91923008F4A5
:100A900047C08081823008F443C0943051F41196ED
:100AA0001C91843099F58181682F70E0611B710978
:100AB0003FC0843021F0923031F48230B9F181812D
:100AC000882389F12DC011961C9111978230F1F085
:100AD00081811817D9F412962D913C911397828138
:100AE00093818217930794F028173907BCF0149666
:100AF0008D919D910D90BC91A02D248135814681D1
:100B00005781281739074A075B0718F4112341F06A
:100B10000AC082179307A407B50740F4112319F000
:100B200061E070E005C06FEF7FEF02C060E070E051
:100B3000CB011F910895DF93CF93CDB7DEB72897F0
:100B40000FB6F894DEBF0FBECDBF8A836B834C8394
:100B500081E089838B81883010F01982F0C08C810C
:100B6000882309F076C08A81282F30E038872F83C8
:100B70008F8198858130910559F12F8138852230F8
:100B800031052CF48F819885009769F060C02F8122
:100B900038852230310589F18F8198858330910520
:100BA00009F440C054C0ABE3B0E0EBE3F0E0808177
:100BB000482F8B81282F30E081E090E0022E02C088
:100BC000880F991F0A94E2F7809584238C93B7C00D
:100BD000A8E3B0E0E8E3F0E08081482F8B81282F84
:100BE00030E081E090E0022E02C0880F991F0A9445
:100BF000E2F7809584238C93A2C0A5E3B0E0E5E3FF
:100C0000F0E08081482F8B81282F30E081E090E058
:100C1000022E02C0880F991F0A94E2F78095842360
:100C20008C938DC0A2E3B0E0E2E3F0E08081482F36
:100C30008B81282F30E081E090E0022E02C0880FE7
:100C4000991F0A94E2F7809584238C9378C01982C7
:100C500076C08C81813009F071C08A81282F30E004
:100C60003E832D838D819E818130910549F12D81B7
:100C70003E81223031052CF48D819E81009761F0F8
:100C80005BC02D813E812230310571F18D819E81C5
:100C900083309105E9F150C0ABE3B0E0EBE3F0E065
:100CA0008081482F8B81282F30E081E090E0022E58
:100CB00002C0880F991F0A94E2F7842B8C933FC0DF
:100CC000A8E3B0E0E8E3F0E08081482F8B81282F93
:100CD00030E081E090E0022E02C0880F991F0A9454
:100CE000E2F7842B8C932BC0A5E3B0E0E5E3F0E0C2
:100CF0008081482F8B81282F30E081E090E0022E08
:100D000002C0880F991F0A94E2F7842B8C9317C0B6
:100D1000A2E3B0E0E2E3F0E08081482F8B81282F4E
:100D200030E081E090E0022E02C0880F991F0A9403
:100D3000E2F7842B8C9303C0198201C01982898148
:100D400028960FB6F894DEBF0FBECDBFCF91DF91CE
:100D50000895DF93CF9300D000D00F92CDB7DEB7C8
:100D60008A836B8381E089838A81282F30E03D83E9
:100D70002C838C819D8181309105D1F02C813D8126
:100D8000223031052CF48C819D81009761F01FC0C9
:100D90002C813D812230310581F08C819D81833011
:100DA000910581F014C0EBE3F0E08B81808310C0EB
:100DB000E8E3F0E08B8180830BC0E5E3F0E08B811A
:100DC000808306C0E2E3F0E08B81808301C019825A
:100DD00089810F900F900F900F900F90CF91DF911E
:100DE0000895DF93CF93CDB7DEB727970FB6F8946A
:100DF000DEBF0FBECDBF8A836B835D834C8381E0F2
:100E000089838C819D81009709F473C08A81282F82
:100E100030E03F832E834E815F814130510559F18F
:100E20008E819F818230910534F42E813F8121157E
:100E3000310569F05CC04E815F814230510579F126
:100E40008E819F818330910509F43DC050C0E9E354
:100E5000F0E08081282F30E08B81882F90E0A9017D
:100E600002C0559547958A95E2F7CA018170EC81D9
:100E7000FD81808340C0E6E3F0E08081282F30E0F0
:100E80008B81882F90E0A90102C0559547958A95DE
:100E9000E2F7CA018170EC81FD8180832CC0E3E31D
:100EA000F0E08081282F30E08B81882F90E0A9012D
:100EB00002C0559547958A95E2F7CA018170EC8189
:100EC000FD81808318C0E0E3F0E08081282F30E0CE
:100ED0008B81882F90E0A90102C0559547958A958E
:100EE000E2F7CA018170EC81FD81808304C0198220
:100EF00002C082E08983898127960FB6F894DEBF0D
:100F00000FBECDBFCF91DF910895DF93CF93CDB7C3
:100F1000DEB72F970FB6F894DEBF0FBECDBF8F8719
:100F200081E061E040E00E949B0581E060E040E0FC
:100F30000E949B0580E06F850E94A90681E062E027
:100F400041E00E949B0580E090E0A0E0B0E48B8748
:100F50009C87AD87BE876B857C858D859E8520E0CF
:100F600030E04AE755E40E941702DC01CB018F8391
:100F70009887A987BA876F81788589859A8520E0C7
:100F800030E040E85FE30E94710388232CF481E0A5
:100F900090E09E838D833FC06F81788589859A8597
:100FA00020E03FEF4FE757E40E94110318164CF57D
:100FB0006B857C858D859E8520E030E040E251E4A4
:100FC0000E941702DC01CB01BC01CD010E9441004F
:100FD000DC01CB019E838D830FC080E991E09C836F
:100FE0008B838B819C810197F1F79C838B838D810F
:100FF0009E8101979E838D838D819E81009769F7E5
:1010000014C06F81788589859A850E944100DC0132
:10101000CB019E838D838D819E819A838983898173
:101020009A810197F1F79A83898381E062E040E039
:101030000E949B052F960FB6F894DEBF0FBECDBF62
:10104000CF91DF910895DF93CF93CDB7DEB72F9780
:101050000FB6F894DEBF0FBECDBF8F8781E061E091
:1010600040E00E949B0581E060E041E00E949B051A
:1010700080E06F850E94A90681E062E041E00E9465
:101080009B0580E090E0A0E0B0E48B879C87AD8773
:10109000BE876B857C858D859E8520E030E04AE7A4
:1010A00055E40E941702DC01CB018F839887A98742
:1010B000BA876F81788589859A8520E030E040E89D
:1010C0005FE30E94710388232CF481E090E09E830B
:1010D0008D833FC06F81788589859A8520E03FEFB9
:1010E0004FE757E40E94110318164CF56B857C8579
:1010F0008D859E8520E030E040E251E40E94170299
:10110000DC01CB01BC01CD010E944100DC01CB011F
:101110009E838D830FC080E991E09C838B838B81BC
:101120009C810197F1F79C838B838D819E81019730
:101130009E838D838D819E81009769F714C06F8196
:10114000788589859A850E944100DC01CB019E83C8
:101150008D838D819E819A83898389819A8101976C
:10116000F1F79A83898381E062E040E00E949B0569
:101170002F960FB6F894DEBF0FBECDBFCF91DF9193
:101180000895DF93CF93CDB7DEB7E8970FB6F89405
:10119000DEBF0FBECDBF80E090E0A0E2B2E48DAB39
:1011A0009EABAFABB8AF6DA97EA98FA998AD20E07B
:1011B00030E04AE755E40E941702DC01CB0189AB1D
:1011C0009AABABABBCAB69A97AA98BA99CA920E06F
:1011D00030E040E85FE30E94710388232CF481E053
:1011E00090E098AB8FA73FC069A97AA98BA99CA969
:1011F00020E03FEF4FE757E40E94110318164CF52B
:101200006DA97EA98FA998AD20E030E040E251E4BD
:101210000E941702DC01CB01BC01CD010E944100FC
:10122000DC01CB0198AB8FA70FC080E991E09EA7AE
:101230008DA78DA59EA50197F1F79EA78DA78FA5D8
:1012400098A9019798AB8FA78FA598A9009769F7E0
:1012500014C069A97AA98BA99CA90E944100DC014C
:10126000CB0198AB8FA78FA598A99CA78BA78BA51F
:101270009CA50197F1F79CA78BA788E30E9485079F
:1012800080E090E0A0E8BFE38FA398A7A9A7BAA742
:101290006FA178A589A59AA520E030E04AE755E43A
:1012A0000E941702DC01CB018BA39CA3ADA3BEA3BC
:1012B0006BA17CA18DA19EA120E030E040E85FE31E
:1012C0000E94710388232CF481E090E09AA389A303
:1012D0003FC06BA17CA18DA19EA120E03FEF4FE715
:1012E00057E40E94110318164CF56FA178A589A543
:1012F0009AA520E030E040E251E40E941702DC01B0
:10130000CB01BC01CD010E944100DC01CB019AA3BD
:1013100089A30FC080E991E098A38F8F8F8D98A14A
:101320000197F1F798A38F8F89A19AA101979AA3AA
:1013300089A389A19AA1009769F714C06BA17CA128
:101340008DA19EA10E944100DC01CB019AA389A33B
:1013500089A19AA19E8F8D8F8D8D9E8D0197F1F71A
:101360009E8F8D8F8CE00E94850780E090E0A0E842
:10137000BFE3898F9A8FAB8FBC8F698D7A8D8B8DF0
:101380009C8D20E030E04AE755E40E941702DC0122
:10139000CB018D8B9E8BAF8BB88F6D897E898F89AA
:1013A000988D20E030E040E85FE30E9471038823DD
:1013B0002CF481E090E09C8B8B8B3FC06D897E8903
:1013C0008F89988D20E03FEF4FE757E40E9411038B
:1013D00018164CF5698D7A8D8B8D9C8D20E030E050
:1013E00040E251E40E941702DC01CB01BC01CD01B7
:1013F0000E944100DC01CB019C8B8B8B0FC080E9EC
:1014000091E09A8B898B89899A890197F1F79A8B58
:10141000898B8B899C8901979C8B8B8B8B899C8971
:10142000009769F714C06D897E898F89988D0E9415
:101430004100DC01CB019C8B8B8B8B899C89988B29
:101440008F878F8598890197F1F7988B8F8781E037
:101450000E94850780E090E0A0E0B0E48B879C8745
:10146000AD87BE876B857C858D859E8520E030E0CD
:101470004AE755E40E941702DC01CB018F8398876D
:10148000A987BA876F81788589859A8520E030E0C1
:1014900040E85FE30E94710388232CF481E090E030
:1014A0009E838D833FC06F81788589859A8520E0F2
:1014B0003FEF4FE757E40E94110318164CF56B8578
:1014C0007C858D859E8520E030E040E251E40E94DD
:1014D0001702DC01CB01BC01CD010E944100DC01FF
:1014E000CB019E838D830FC080E991E09C838B8329
:1014F0008B819C810197F1F79C838B838D819E81E9
:1015000001979E838D838D819E81009769F714C01A
:101510006F81788589859A850E944100DC01CB0125
:101520009E838D838D819E819A83898389819A810F
:101530000197F1F79A838983E8960FB6F894DEBF96
:101540000FBECDBFCF91DF910895DF93CF9300D031
:10155000CDB7DEB79A8389830AC0E981FA81808199
:101560000E94230889819A8101969A838983E9815F
:10157000FA818081882389F70F900F90CF91DF91B6
:101580000895EF92FF920F931F93DF93CF93CDB700
:10159000DEB728970FB6F894DEBF0FBECDBF6D83C0
:1015A0007E838F83988781E090E0A0E0B0E089831C
:1015B0009A83AB83BC8336C089819A81AB81BC811D
:1015C0002AE030E040E050E0BC01CD010E94A50ED1
:1015D0007B018C018D819E81AF81B8852AE030E04E
:1015E00040E050E0BC01CD010E94C40EDC01CB0103
:1015F0008E0D9F1DA01FB11F89839A83AB83BC836F
:101600008D819E81AF81B8852AE030E040E050E0D6
:10161000BC01CD010E94C40EDA01C9018D839E83F5
:10162000AF83B8878D819E81AF81B8850097A10572
:10163000B10511F689819A81AB81BC812AE030E045
:1016400040E050E0BC01CD010E94C40EDC01CB01A2
:10165000805D0E94230889819A81AB81BC812AE048
:1016600030E040E050E0BC01CD010E94C40EDA0140
:10167000C90189839A83AB83BC8389819A81AB81B9
:10168000BC8181309105A105B105A1F628960FB660
:10169000F894DEBF0FBECDBFCF91DF911F910F91A8
:1016A000FF90EF900895DF93CF9300D00F92CDB7C6
:1016B000DEB78A836B838A81882319F48B818983BF
:1016C00006C08A81813019F48B81805C898389818D
:1016D0008068898389810E9485070F900F900F9001
:1016E000CF91DF910895DF93CF93CDB7DEB72797E2
:1016F0000FB6F894DEBF0FBECDBF9C838B836D8386
:101700004E832F838D81882F90E0880F991F880F3B
:10171000991F880F991F8A838A8180648A838A81AE
:101720000E94850719820EC08981282F30E08B81A5
:101730009C81FC01E20FF31F80810E9423088981B4
:101740008F5F89838981883078F38E816F810E94D1
:10175000530B8D810E94230827960FB6F894DEBFA5
:101760000FBECDBFCF91DF910895DF93CF93CDB75B
:10177000DEB7EAE3F0E08FEF8083E7E3F0E08FEF9E
:101780008083E4E3F0E08FEF8083E1E3F0E08FEF2C
:101790008083EBE3F0E08FEF8083E8E3F0E08FEF0E
:1017A0008083E5E3F0E08FEF8083E2E3F0E08FEF0A
:1017B0008083CF91DF910895DF93CF93CDB7DEB7CC
:1017C00068970FB6F894DEBF0FBECDBF0E94B50B71
:1017D0000E94C10888E0FE013196DF01982F1D921A
:1017E0009A95E9F78FE08A8380E18B8380E18C838F
:1017F0008FE18D8388E0FE013996DF01982F1D92DD
:101800009A95E9F78EE08A8781E18B8781E18C8761
:101810008FE18D8788E0FE017196DF01982F1D9280
:101820009A95E9F781E08A8B81E08B8B81E08C8B44
:1018300082E08D8B84E08E8B88E08F8B0E94810DFF
:1018400068960FB6F894DEBF0FBECDBFCF91DF9183
:101850000895DF93CF93CDB7DEB761970FB6F894B5
:10186000DEBF0FBECDBF898B188A88C01F867FC0A0
:1018700088896F850E94530B89890E94230880E024
:1018800090E0A8E4B3E48B879C87AD87BE876B8527
:101890007C858D859E8520E030E04AE755E40E94F6
:1018A0001702DC01CB018F839887A987BA876F81E4
:1018B000788589859A8520E030E040E85FE30E94E2
:1018C000710388232CF481E090E09E838D833FC0D8
:1018D0006F81788589859A8520E03FEF4FE757E44F
:1018E0000E94110318164CF56B857C858D859E85AD
:1018F00020E030E040E251E40E941702DC01CB011D
:10190000BC01CD010E944100DC01CB019E838D838F
:101910000FC080E991E09C838B838B819C81019730
:10192000F1F79C838B838D819E8101979E838D83AC
:101930008D819E81009769F714C06F8178858985B4
:101940009A850E944100DC01CB019E838D838D81AD
:101950009E819A83898389819A810197F1F79A837D
:10196000898381E00E9485078F858F5F8F878F85B0
:10197000803108F47DCF88898F5F888B8889823099
:1019800008F474CF61960FB6F894DEBF0FBECDBFDA
:10199000CF91DF910895DF93CF93CDB7DEB76497F2
:1019A0000FB6F894DEBF0FBECDBF80E690E09C8BF3
:1019B0008B8B1A8A198A188A1F868989823008F0C7
:1019C000198A88898D3008F0188A1A8A87C089890F
:1019D00068890E94530B8A89282F30E08B899C8963
:1019E000FC01E20FF31F80810E94230880E090E059
:1019F000A6E9B3E48B879C87AD87BE876B857C8522
:101A00008D859E8520E030E04AE755E40E9417026C
:101A1000DC01CB018F839887A987BA876F8178858E
:101A200089859A8520E030E040E85FE30E947103F9
:101A300088232CF481E090E09E838D833FC06F81EA
:101A4000788589859A8520E03FEF4FE757E40E942B
:101A5000110318164CF56B857C858D859E8520E0DD
:101A600030E040E251E40E941702DC01CB01BC01EE
:101A7000CD010E944100DC01CB019E838D830FC00C
:101A800080E991E09C838B838B819C810197F1F7A6
:101A90009C838B838D819E8101979E838D838D8115
:101AA0009E81009769F714C06F81788589859A8532
:101AB0000E944100DC01CB019E838D838D819E813C
:101AC0009A83898389819A810197F1F79A8389831F
:101AD00088898F5F888B8A898F5F8A8B8A89282F74
:101AE00030E08B899C89FC01E20FF31F8081882301
:101AF00009F06DCF81E00E94850789898F5F898B0E
:101B00005CCFDF93CF93CDB7DEB768970FB6F8946D
:101B1000DEBF0FBECDBF80E690E0988F8F8B1E8A10
:101B20001D8A1C8A1B8A1A8A84E0898B188A1F8660
:101B30008C89803148F01C8A84E0898B8D890E94D1
:101B4000760E888B88898D8B9C898989891718F4F2
:101B500089898C5F898B8F85813061F48C890E94A3
:101B6000890E882339F48D890E94760E888B8889A6
:101B70008D8B1F861B8A8C898A8B1E8AA4C08989BB
:101B8000282F30E08B89882F90E0281B390B8C8917
:101B9000882F90E02817390761F48C898D3008F080
:101BA0001A8A8D890E94760E888B88898D8B81E0B8
:101BB0008F878D896A890E94530B8E89282F30E088
:101BC0008F89988DFC01E20FF31F80810E9423080A
:101BD00080E090E0AAEFB3E48B879C87AD87BE8757
:101BE0006B857C858D859E8520E030E04AE755E455
:101BF0000E941702DC01CB018F839887A987BA87DF
:101C00006F81788589859A8520E030E040E85FE340
:101C10000E94710388232CF481E090E09E838D83E1
:101C20003FC06F81788589859A8520E03FEF4FE737
:101C300057E40E94110318164CF56B857C858D8541
:101C40009E8520E030E040E251E40E941702DC0172
:101C5000CB01BC01CD010E944100DC01CB019E8380
:101C60008D830FC080E991E09C838B838B819C8165
:101C70000197F1F79C838B838D819E8101979E83D1
:101C80008D838D819E81009769F714C06F8178855F
:101C900089859A850E944100DC01CB019E838D835A
:101CA0008D819E819A83898389819A810197F1F739
:101CB0009A8389838A898F5F8A8B8B898F5F8B8BCD
:101CC0008E898F5F8E8B8E89282F30E08F89988D3B
:101CD000FC01E20FF31F8081882309F050CF81E0DF
:101CE0000E9485078C898F5F8C8B22CFDF93CF93E7
:101CF00000D0CDB7DEB789838981882319F481E0CC
:101D00008A8301C01A828A810F900F90CF91DF9150
:101D10000895DF93CF9300D0CDB7DEB78983898153
:101D2000853049F08981893031F089818D3019F011
:101D30008981803119F481E08A8301C01A828A8105
:101D40000F900F90CF91DF910895629FD001739F04
:101D5000F001829FE00DF11D649FE00DF11D929F47
:101D6000F00D839FF00D749FF00D659FF00D992786
:101D7000729FB00DE11DF91F639FB00DE11DF91FAA
:101D8000BD01CF0111240895A1E21A2EAA1BBB1B8D
:101D9000FD010DC0AA1FBB1FEE1FFF1FA217B30737
:101DA000E407F50720F0A21BB30BE40BF50B661F4D
:101DB000771F881F991F1A9469F760957095809511
:101DC00090959B01AC01BD01CF0108952F923F92E8
:101DD0004F925F926F927F928F929F92AF92BF923B
:101DE000CF92DF92EF92FF920F931F93CF93DF93E7
:101DF000CDB7DEB7CA1BDB0B0FB6F894DEBF0FBE44
:101E0000CDBF09942A88398848885F846E847D8490
:101E10008C849B84AA84B984C884DF80EE80FD8092
:101E20000C811B81AA81B981CE0FD11D0FB6F89408
:0E1E3000DEBF0FBECDBFED010895F894FFCFC9
:0E1E3E004F4D41520000000000000000000067
:00000001FF
